{
	"format": "sphinx-sol-ct-artifact-1",
	"merkleRoot": "0x73645f6fb745400c627c587b527553de94ee8472b637350f6d00ced9f9a780a6",
	"address": "0x2d9b78cb37ca724cfb9b32cd8e9a5dc1c88bc7bb",
	"sourceName": "src/JBAddressRegistry.sol",
	"contractName": "JBAddressRegistry",
	"chainId": "0x1",
	"abi": [
		{
			"inputs": [
				{
					"internalType": "address",
					"name": "addr",
					"type": "address"
				}
			],
			"name": "deployerOf",
			"outputs": [
				{
					"internalType": "address",
					"name": "deployer",
					"type": "address"
				}
			],
			"stateMutability": "view",
			"type": "function"
		},
		{
			"inputs": [
				{
					"internalType": "address",
					"name": "deployer",
					"type": "address"
				},
				{
					"internalType": "uint256",
					"name": "nonce",
					"type": "uint256"
				}
			],
			"name": "registerAddress",
			"outputs": [],
			"stateMutability": "nonpayable",
			"type": "function"
		},
		{
			"inputs": [
				{
					"internalType": "address",
					"name": "deployer",
					"type": "address"
				},
				{
					"internalType": "bytes32",
					"name": "salt",
					"type": "bytes32"
				},
				{
					"internalType": "bytes",
					"name": "bytecode",
					"type": "bytes"
				}
			],
			"name": "registerAddress",
			"outputs": [],
			"stateMutability": "nonpayable",
			"type": "function"
		},
		{
			"anonymous": false,
			"inputs": [
				{
					"indexed": true,
					"internalType": "address",
					"name": "addr",
					"type": "address"
				},
				{
					"indexed": true,
					"internalType": "address",
					"name": "deployer",
					"type": "address"
				},
				{
					"indexed": false,
					"internalType": "address",
					"name": "caller",
					"type": "address"
				}
			],
			"name": "AddressRegistered",
			"type": "event"
		}
	],
	"args": [],
	"solcInputHash": "8b17a7bbb5daaf8f633d28603c43b156",
	"bytecode": "0x608060405234801561000f575f80fd5b506108668061001d5f395ff3fe608060405234801561000f575f80fd5b506004361061003f575f3560e01c8063416dc73214610043578063b94417ab146100a1578063da3c8b0a146100b6575b5f80fd5b610078610051366004610759565b5f6020819052908152604090205473ffffffffffffffffffffffffffffffffffffffff1681565b60405173ffffffffffffffffffffffffffffffffffffffff909116815260200160405180910390f35b6100b46100af366004610779565b6100c9565b005b6100b46100c43660046107a1565b6100e5565b5f6100d4838361019f565b90506100e081846106aa565b505050565b5f60ff60f81b858585856040516100fd929190610821565b604051908190038120610174949392916020017fff0000000000000000000000000000000000000000000000000000000000000094909416845260609290921b7fffffffffffffffffffffffffffffffffffffffff0000000000000000000000001660018401526015830152603582015260550190565b604051602081830303815290604052805190602001205f1c905061019881866106aa565b5050505050565b5f6060825f03610264576040517fd60000000000000000000000000000000000000000000000000000000000000060208201527f940000000000000000000000000000000000000000000000000000000000000060218201527fffffffffffffffffffffffffffffffffffffffff000000000000000000000000606086901b1660228201527f800000000000000000000000000000000000000000000000000000000000000060368201526037015b6040516020818303038152906040529050610697565b607f831161031b576040517fd60000000000000000000000000000000000000000000000000000000000000060208201527f940000000000000000000000000000000000000000000000000000000000000060218201527fffffffffffffffffffffffffffffffffffffffff000000000000000000000000606086901b16602282015260f884901b7fff0000000000000000000000000000000000000000000000000000000000000016603682015260370161024e565b60ff83116103f8576040517fd70000000000000000000000000000000000000000000000000000000000000060208201527f940000000000000000000000000000000000000000000000000000000000000060218201527fffffffffffffffffffffffffffffffffffffffff000000000000000000000000606086901b1660228201527f8100000000000000000000000000000000000000000000000000000000000000603682015260f884901b7fff0000000000000000000000000000000000000000000000000000000000000016603782015260380161024e565b61ffff83116104d6576040517fd80000000000000000000000000000000000000000000000000000000000000060208201527f940000000000000000000000000000000000000000000000000000000000000060218201527fffffffffffffffffffffffffffffffffffffffff000000000000000000000000606086901b1660228201527f820000000000000000000000000000000000000000000000000000000000000060368201527fffff00000000000000000000000000000000000000000000000000000000000060f085901b16603782015260390161024e565b62ffffff83116105b5576040517fd90000000000000000000000000000000000000000000000000000000000000060208201527f940000000000000000000000000000000000000000000000000000000000000060218201527fffffffffffffffffffffffffffffffffffffffff000000000000000000000000606086901b1660228201527f830000000000000000000000000000000000000000000000000000000000000060368201527fffffff000000000000000000000000000000000000000000000000000000000060e885901b166037820152603a0161024e565b6040517fda0000000000000000000000000000000000000000000000000000000000000060208201527f940000000000000000000000000000000000000000000000000000000000000060218201527fffffffffffffffffffffffffffffffffffffffff000000000000000000000000606086901b1660228201527f840000000000000000000000000000000000000000000000000000000000000060368201527fffffffff0000000000000000000000000000000000000000000000000000000060e085901b166037820152603b0160405160208183030381529060405290505b80516020909101205f8190529392505050565b73ffffffffffffffffffffffffffffffffffffffff8281165f818152602081815260409182902080547fffffffffffffffffffffffff000000000000000000000000000000000000000016948616948517905590513381527f7d6162a71c5021da669d43dd6f106854635e56ebf51a7d028ade33473c69c0fc910160405180910390a35050565b803573ffffffffffffffffffffffffffffffffffffffff81168114610754575f80fd5b919050565b5f60208284031215610769575f80fd5b61077282610731565b9392505050565b5f806040838503121561078a575f80fd5b61079383610731565b946020939093013593505050565b5f805f80606085870312156107b4575f80fd5b6107bd85610731565b935060208501359250604085013567ffffffffffffffff808211156107e0575f80fd5b818701915087601f8301126107f3575f80fd5b813581811115610801575f80fd5b886020828501011115610812575f80fd5b95989497505060200194505050565b818382375f910190815291905056fea26469706673582212206f07b6cd7dfc40d2e815caedc2f50b5053bc3afd965325d21fc2ffeb3044113d64736f6c63430008170033",
	"gitCommit": "922b48185d8a792b44854cf6d3257339a9d73eaa"
}