{
  "abi": [
    {
      "inputs": [],
      "name": "JBDelegatesRegistry_incompatibleDelegate",
      "type": "error"
    },
    {
      "anonymous": false,
      "inputs": [
        {
          "indexed": true,
          "internalType": "address",
          "name": "_delegate",
          "type": "address"
        },
        {
          "indexed": true,
          "internalType": "address",
          "name": "_deployer",
          "type": "address"
        }
      ],
      "name": "DelegateAdded",
      "type": "event"
    },
    {
      "inputs": [
        {
          "internalType": "address",
          "name": "_deployer",
          "type": "address"
        },
        {
          "internalType": "uint256",
          "name": "_nonce",
          "type": "uint256"
        }
      ],
      "name": "addDelegate",
      "outputs": [],
      "stateMutability": "nonpayable",
      "type": "function"
    },
    {
      "inputs": [
        {
          "internalType": "address",
          "name": "_deployer",
          "type": "address"
        },
        {
          "internalType": "bytes32",
          "name": "_salt",
          "type": "bytes32"
        },
        {
          "internalType": "bytes",
          "name": "_bytecode",
          "type": "bytes"
        }
      ],
      "name": "addDelegateCreate2",
      "outputs": [],
      "stateMutability": "nonpayable",
      "type": "function"
    },
    {
      "inputs": [
        {
          "internalType": "address",
          "name": "",
          "type": "address"
        }
      ],
      "name": "deployerOf",
      "outputs": [
        {
          "internalType": "address",
          "name": "",
          "type": "address"
        }
      ],
      "stateMutability": "view",
      "type": "function"
    }
  ],
  "bytecode": {
    "object": "0x608060405234801561001057600080fd5b50610630806100206000396000f3fe608060405234801561001057600080fd5b50600436106100415760003560e01c8063416dc732146100465780635bcfd2121461008b578063aceea1e4146100a0575b600080fd5b61006f61005436600461051e565b6000602081905290815260409020546001600160a01b031681565b6040516001600160a01b03909116815260200160405180910390f35b61009e610099366004610539565b6100b3565b005b61009e6100ae366004610563565b6100d0565b60006100bf838361015c565b90506100cb8184610386565b505050565b600060ff60f81b858585856040516100e99291906105ea565b604051908190038120610130949392916020016001600160f81b031994909416845260609290921b6001600160601b03191660018401526015830152603582015260550190565b6040516020818303038152906040528051906020012060001c90506101558186610386565b5050505050565b60006060826000036101b757604051606b60f91b6020820152602560fa1b60218201526001600160601b0319606086901b166022820152600160ff1b60368201526037015b6040516020818303038152906040529050610372565b607f831161020657604051606b60f91b6020820152602560fa1b60218201526001600160601b0319606086901b16602282015260f884901b6001600160f81b03191660368201526037016101a1565b60ff831161025f5760405160d760f81b6020820152602560fa1b60218201526001600160601b0319606086901b166022820152608160f81b603682015260f884901b6001600160f81b03191660378201526038016101a1565b61ffff83116102b957604051601b60fb1b6020820152602560fa1b60218201526001600160601b0319606086901b166022820152604160f91b60368201526001600160f01b031960f085901b1660378201526039016101a1565b62ffffff83116103145760405160d960f81b6020820152602560fa1b60218201526001600160601b0319606086901b166022820152608360f81b60368201526001600160e81b031960e885901b166037820152603a016101a1565b604051606d60f91b6020820152602560fa1b60218201526001600160601b0319606086901b166022820152602160fa1b60368201526001600160e01b031960e085901b166037820152603b0160405160208183030381529060405290505b805160209091012060008190529392505050565b6103978263da9ee8b760e01b610422565b806103ae57506103ae82632b13c58f60e01b610422565b6103cb576040516302d47a4160e41b815260040160405180910390fd5b6001600160a01b0382811660008181526020819052604080822080546001600160a01b0319169486169485179055517f12dade473695d73bd34e031c850d5e815fa17a42b1b5ba13ff72de2497c5e3099190a35050565b600061042d83610445565b801561043e575061043e8383610479565b9392505050565b6000610458826301ffc9a760e01b610479565b80156104735750610471826001600160e01b0319610479565b155b92915050565b604080516001600160e01b03198316602480830191909152825180830390910181526044909101909152602080820180516001600160e01b03166301ffc9a760e01b178152825160009392849283928392918391908a617530fa92503d915060005190508280156104eb575060208210155b80156104f75750600081115b979650505050505050565b80356001600160a01b038116811461051957600080fd5b919050565b60006020828403121561053057600080fd5b61043e82610502565b6000806040838503121561054c57600080fd5b61055583610502565b946020939093013593505050565b6000806000806060858703121561057957600080fd5b61058285610502565b935060208501359250604085013567ffffffffffffffff808211156105a657600080fd5b818701915087601f8301126105ba57600080fd5b8135818111156105c957600080fd5b8860208285010111156105db57600080fd5b95989497505060200194505050565b818382376000910190815291905056fea264697066735822122056943242f3825f1167e4ce072c4354498a44baabdc3e594ed8a06a4e6f6a1d6c64736f6c63430008120033",
    "linkReferences": {}
  },
  "methodIdentifiers": {
    "addDelegate(address,uint256)": "5bcfd212",
    "addDelegateCreate2(address,bytes32,bytes)": "aceea1e4",
    "deployerOf(address)": "416dc732"
  },
  "id": 23
}