{
  "abi": [
    {
      "inputs": [],
      "stateMutability": "nonpayable",
      "type": "constructor"
    },
    {
      "inputs": [],
      "name": "juiceDelegatesRegistry_authError",
      "type": "error"
    },
    {
      "inputs": [],
      "name": "juiceDelegatesRegistry_incompatibleDelegate",
      "type": "error"
    },
    {
      "anonymous": false,
      "inputs": [
        {
          "indexed": true,
          "internalType": "address",
          "name": "_delegate",
          "type": "address"
        },
        {
          "indexed": true,
          "internalType": "address",
          "name": "_deployer",
          "type": "address"
        }
      ],
      "name": "DelegateAdded",
      "type": "event"
    },
    {
      "inputs": [
        {
          "internalType": "address",
          "name": "_delegate",
          "type": "address"
        }
      ],
      "name": "addTrustedDelegate",
      "outputs": [],
      "stateMutability": "nonpayable",
      "type": "function"
    },
    {
      "inputs": [
        {
          "internalType": "address",
          "name": "",
          "type": "address"
        }
      ],
      "name": "admins",
      "outputs": [
        {
          "internalType": "bool",
          "name": "",
          "type": "bool"
        }
      ],
      "stateMutability": "view",
      "type": "function"
    },
    {
      "inputs": [
        {
          "internalType": "address",
          "name": "_admin",
          "type": "address"
        },
        {
          "internalType": "bool",
          "name": "_isAdmin",
          "type": "bool"
        }
      ],
      "name": "setAdmin",
      "outputs": [],
      "stateMutability": "nonpayable",
      "type": "function"
    },
    {
      "inputs": [
        {
          "internalType": "address",
          "name": "_deployer",
          "type": "address"
        },
        {
          "internalType": "bool",
          "name": "_isDeployer",
          "type": "bool"
        }
      ],
      "name": "setDeployer",
      "outputs": [],
      "stateMutability": "nonpayable",
      "type": "function"
    },
    {
      "inputs": [
        {
          "internalType": "address",
          "name": "",
          "type": "address"
        }
      ],
      "name": "trustedDeployers",
      "outputs": [
        {
          "internalType": "bool",
          "name": "",
          "type": "bool"
        }
      ],
      "stateMutability": "view",
      "type": "function"
    },
    {
      "inputs": [
        {
          "internalType": "address",
          "name": "",
          "type": "address"
        }
      ],
      "name": "trustedJuiceDelegates",
      "outputs": [
        {
          "internalType": "address",
          "name": "",
          "type": "address"
        }
      ],
      "stateMutability": "view",
      "type": "function"
    }
  ],
  "bytecode": {
    "object": "0x608060405234801561001057600080fd5b50336000908152600260205260409020805460ff191660011790556104498061003a6000396000f3fe608060405234801561001057600080fd5b50600436106100625760003560e01c8063429b62e5146100675780634b0bddd21461009f5780637984b0fa146100b457806385f9133d146100c7578063a34b5ee814610108578063fb880dda1461011b575b600080fd5b61008a6100753660046103bc565b60026020526000908152604090205460ff1681565b60405190151581526020015b60405180910390f35b6100b26100ad3660046103d7565b61013e565b005b6100b26100c23660046103bc565b610199565b6100f06100d53660046103bc565b6001602052600090815260409020546001600160a01b031681565b6040516001600160a01b039091168152602001610096565b6100b26101163660046103d7565b610265565b61008a6101293660046103bc565b60006020819052908152604090205460ff1681565b3360009081526002602052604090205460ff1661016e57604051636799b20560e11b815260040160405180910390fd5b6001600160a01b03919091166000908152600260205260409020805460ff1916911515919091179055565b3360009081526020819052604090205460ff166101c957604051636799b20560e11b815260040160405180910390fd5b6101da8163da9ee8b760e01b6102c0565b806101f157506101f181632b13c58f60e01b6102c0565b61020e57604051637ebbb08360e11b815260040160405180910390fd5b6001600160a01b03811660008181526001602052604080822080546001600160a01b0319163390811790915590519092917f12dade473695d73bd34e031c850d5e815fa17a42b1b5ba13ff72de2497c5e30991a350565b3360009081526002602052604090205460ff1661029557604051636799b20560e11b815260040160405180910390fd5b6001600160a01b03919091166000908152602081905260409020805460ff1916911515919091179055565b60006102cb836102e3565b80156102dc57506102dc8383610317565b9392505050565b60006102f6826301ffc9a760e01b610317565b8015610311575061030f826001600160e01b0319610317565b155b92915050565b604080516001600160e01b03198316602480830191909152825180830390910181526044909101909152602080820180516001600160e01b03166301ffc9a760e01b178152825160009392849283928392918391908a617530fa92503d91506000519050828015610389575060208210155b80156103955750600081115b979650505050505050565b80356001600160a01b03811681146103b757600080fd5b919050565b6000602082840312156103ce57600080fd5b6102dc826103a0565b600080604083850312156103ea57600080fd5b6103f3836103a0565b91506020830135801515811461040857600080fd5b80915050925092905056fea2646970667358221220e353e7cd81751c7c2ea11f1036baaf5222243d58258f0e7b9d2e612f30fd3bc064736f6c63430008110033",
    "linkReferences": {}
  },
  "methodIdentifiers": {
    "addTrustedDelegate(address)": "7984b0fa",
    "admins(address)": "429b62e5",
    "setAdmin(address,bool)": "4b0bddd2",
    "setDeployer(address,bool)": "a34b5ee8",
    "trustedDeployers(address)": "fb880dda",
    "trustedJuiceDelegates(address)": "85f9133d"
  },
  "id": 23
}