{
	"_format": "sphinx-sol-ct-artifact-1",
	"merkleRoot": "0x6ffe8fff2f71e9874e801fefa5c09b17177d6dbf63acd61dba3d62032e12c711",
	"contractName": "JBAddressRegistry",
	"address": "0x529FDff2bC7fbdaeA7b86901FDa9e6905b61E54C",
	"abi": [
		{
			"type": "function",
			"name": "deployerOf",
			"inputs": [
				{
					"name": "addr",
					"type": "address",
					"internalType": "address"
				}
			],
			"outputs": [
				{
					"name": "deployer",
					"type": "address",
					"internalType": "address"
				}
			],
			"stateMutability": "view"
		},
		{
			"type": "function",
			"name": "registerAddress",
			"inputs": [
				{
					"name": "deployer",
					"type": "address",
					"internalType": "address"
				},
				{
					"name": "nonce",
					"type": "uint256",
					"internalType": "uint256"
				}
			],
			"outputs": [],
			"stateMutability": "nonpayable"
		},
		{
			"type": "function",
			"name": "registerAddress",
			"inputs": [
				{
					"name": "deployer",
					"type": "address",
					"internalType": "address"
				},
				{
					"name": "salt",
					"type": "bytes32",
					"internalType": "bytes32"
				},
				{
					"name": "bytecode",
					"type": "bytes",
					"internalType": "bytes"
				}
			],
			"outputs": [],
			"stateMutability": "nonpayable"
		},
		{
			"type": "event",
			"name": "AddressRegistered",
			"inputs": [
				{
					"name": "addr",
					"type": "address",
					"indexed": true,
					"internalType": "address"
				},
				{
					"name": "deployer",
					"type": "address",
					"indexed": true,
					"internalType": "address"
				},
				{
					"name": "caller",
					"type": "address",
					"indexed": false,
					"internalType": "address"
				}
			],
			"anonymous": false
		}
	],
	"solcInputHash": "07ccc7834f1665ff612bf6f3466a43f5",
	"args": [],
	"bytecode": "0x608060405234801561001057600080fd5b5061087e806100206000396000f3fe608060405234801561001057600080fd5b50600436106100415760003560e01c8063416dc73214610046578063b94417ab146100a5578063da3c8b0a146100ba575b600080fd5b61007c610054366004610765565b60006020819052908152604090205473ffffffffffffffffffffffffffffffffffffffff1681565b60405173ffffffffffffffffffffffffffffffffffffffff909116815260200160405180910390f35b6100b86100b3366004610787565b6100cd565b005b6100b86100c83660046107b1565b6100ea565b60006100d983836101a6565b90506100e581846106b4565b505050565b600060ff60f81b85858585604051610103929190610838565b60405190819003812061017a949392916020017fff0000000000000000000000000000000000000000000000000000000000000094909416845260609290921b7fffffffffffffffffffffffffffffffffffffffff0000000000000000000000001660018401526015830152603582015260550190565b6040516020818303038152906040528051906020012060001c905061019f81866106b4565b5050505050565b600060608260000361026d576040517fd60000000000000000000000000000000000000000000000000000000000000060208201527f940000000000000000000000000000000000000000000000000000000000000060218201527fffffffffffffffffffffffffffffffffffffffff000000000000000000000000606086901b1660228201527f800000000000000000000000000000000000000000000000000000000000000060368201526037015b60405160208183030381529060405290506106a0565b607f8311610324576040517fd60000000000000000000000000000000000000000000000000000000000000060208201527f940000000000000000000000000000000000000000000000000000000000000060218201527fffffffffffffffffffffffffffffffffffffffff000000000000000000000000606086901b16602282015260f884901b7fff00000000000000000000000000000000000000000000000000000000000000166036820152603701610257565b60ff8311610401576040517fd70000000000000000000000000000000000000000000000000000000000000060208201527f940000000000000000000000000000000000000000000000000000000000000060218201527fffffffffffffffffffffffffffffffffffffffff000000000000000000000000606086901b1660228201527f8100000000000000000000000000000000000000000000000000000000000000603682015260f884901b7fff00000000000000000000000000000000000000000000000000000000000000166037820152603801610257565b61ffff83116104df576040517fd80000000000000000000000000000000000000000000000000000000000000060208201527f940000000000000000000000000000000000000000000000000000000000000060218201527fffffffffffffffffffffffffffffffffffffffff000000000000000000000000606086901b1660228201527f820000000000000000000000000000000000000000000000000000000000000060368201527fffff00000000000000000000000000000000000000000000000000000000000060f085901b166037820152603901610257565b62ffffff83116105be576040517fd90000000000000000000000000000000000000000000000000000000000000060208201527f940000000000000000000000000000000000000000000000000000000000000060218201527fffffffffffffffffffffffffffffffffffffffff000000000000000000000000606086901b1660228201527f830000000000000000000000000000000000000000000000000000000000000060368201527fffffff000000000000000000000000000000000000000000000000000000000060e885901b166037820152603a01610257565b6040517fda0000000000000000000000000000000000000000000000000000000000000060208201527f940000000000000000000000000000000000000000000000000000000000000060218201527fffffffffffffffffffffffffffffffffffffffff000000000000000000000000606086901b1660228201527f840000000000000000000000000000000000000000000000000000000000000060368201527fffffffff0000000000000000000000000000000000000000000000000000000060e085901b166037820152603b0160405160208183030381529060405290505b805160209091012060008190529392505050565b73ffffffffffffffffffffffffffffffffffffffff8281166000818152602081815260409182902080547fffffffffffffffffffffffff000000000000000000000000000000000000000016948616948517905590513381527f7d6162a71c5021da669d43dd6f106854635e56ebf51a7d028ade33473c69c0fc910160405180910390a35050565b803573ffffffffffffffffffffffffffffffffffffffff8116811461076057600080fd5b919050565b60006020828403121561077757600080fd5b6107808261073c565b9392505050565b6000806040838503121561079a57600080fd5b6107a38361073c565b946020939093013593505050565b600080600080606085870312156107c757600080fd5b6107d08561073c565b935060208501359250604085013567ffffffffffffffff808211156107f457600080fd5b818701915087601f83011261080857600080fd5b81358181111561081757600080fd5b88602082850101111561082957600080fd5b95989497505060200194505050565b818382376000910190815291905056fea2646970667358221220fdd3378024e24e7356d0373c166d7f716da65736f29bdae6d24ab353f186030d64736f6c63430008170033",
	"devdoc": {
		"kind": "dev",
		"methods": {
			"registerAddress(address,bytes32,bytes)": {
				"details": "The contract must be deployed using `create2`.The `create2` salt is determined by the deployer's logic. The deployment bytecode can be retrieved offchain (from the deployment transaction) or onchain (with `abi.encodePacked(type(deployedContract).creationCode, abi.encode(constructorArguments))`).",
				"params": {
					"bytecode": "The contract's deployment bytecode, including the constructor arguments.",
					"deployer": "The address of the contract's deployer.",
					"salt": "The `create2` salt used to deploy the contract."
				}
			},
			"registerAddress(address,uint256)": {
				"details": "The contract must be deployed using `create`.",
				"params": {
					"deployer": "The address of the contract's deployer.",
					"nonce": "The nonce used to deploy the contract."
				}
			}
		},
		"version": 1
	},
	"userdoc": {
		"kind": "user",
		"methods": {
			"deployerOf(address)": {
				"notice": "Returns the deployer of a given contract which has been registered."
			},
			"registerAddress(address,bytes32,bytes)": {
				"notice": "Register a deployed contract's address."
			},
			"registerAddress(address,uint256)": {
				"notice": "Register a deployed contract's address."
			}
		},
		"version": 1
	},
	"gitCommit": "61b9f0942ab4254450a9c13e24b5ceb0ee33f247",
	"sourceName": "src/JBAddressRegistry.sol",
	"chainId": "11155111",
	"linkReferences": {},
	"deployedLinkReferences": {},
	"history": []
}